S0180000446973706C6179496E746572666163652E73726563A5
S113000033C0000039C0000037C0000035C0000014
S113001033C0000031C000002FC000002DC000001C
S11300202BC0000029C0000027C0000025C000002C
S113003023C0000021C000001FC000001DC000003C
S11300401BC0000019C0000017C0000015C000004C
S113005013C0000011C000000FC000000DC000005C
S11300600BC0000009C0000011241FBECFEFD8E070
S1130070DEBFCDBFBFD1B1C4C3CFCF93DF93CDB764
S1130080DEB72F970FB6F894DEBF0FBECDBF9E87A5
S11300908D876F878D859E859A8389838F858B83D2
S11300A089819A819D838C838C819D819695879586
S11300B096958795969587958E838E81282F30E027
S11300C0C901880F991F820F931F809698878F8389
S11300D089819A819A87898789859A859C01277065
S11300E0332781E090E002C0880F991F2A95E2F738
S11300F0882F90E09C878B878B81882361F48F8184
S11301009885FC0192818B85292F282B8F819885D6
S1130110FC0122830FC08B81813061F48F8198852B
S1130120FC0192818B858095292F28238F819885C6
S1130130FC0122832F960FB6F894DEBF0FBECDBF0D
S1130140DF91CF910895CF93DF93CDB7DEB7619759
S11301500FB6F894DEBF0FBECDBF9F878E87798B15
S1130160688B8E859F859A838983888999899C83E6
S11301708B8389819A819E838D838D819E819695BF
S1130180879596958795969587958F838F81282F48
S113019030E0C901880F991F820F931F80969987B9
S11301A088878B819C810197D9F489819A819B8767
S11301B08A878A859B859C012770332781E090E09C
S11301C002C0880F991F2A95E2F7282F8885998500
S11301D0FC018181282B88859985FC01218325C018
S11301E08B819C81892B09F589819A819D878C87D4
S11301F08C859D859C012770332781E090E002C0A7
S1130200880F991F2A95E2F7882F90E09C0120958A
S1130210309588859985FC018181982F822F8923C7
S1130220282F88859985FC01218361960FB6F8945F
S1130230DEBF0FBECDBFDF91CF910895CF93DF9383
S1130240CDB7DEB72D970FB6F894DEBF0FBECDBF86
S11302509C878B876D878B859C859A8389838D8505
S11302608B8389819A81969587959695879596959E
S113027087958C838C81282F30E0C901880F991FC2
S1130280820F931F80969E838D838B818823D9F060
S11302908D819E81FC01428189819A8198878F8317
S11302A08F8198859C012770332781E090E002C0FC
S11302B0880F991F2A95E2F7242F282B8D819E8180
S11302C0FC0122831CC08D819E81FC018281482F08
S11302D089819A819A87898789859A859C01277063
S11302E0332781E090E002C0880F991F2A95E2F736
S11302F080958423282F8D819E81FC0122832D9655
S11303000FB6F894DEBF0FBECDBFDF91CF91089535
S1130310CF93DF93CDB7DEB72B970FB6F894DEBF3C
S11303200FBECDBF9B878A878A859B859A838983E5
S113033089819A819C838B838B819C8196958795F7
S113034096958795969587958D838D81282F30E096
S1130350C901880F991F820F931F80969F838E83F4
S11303608E819F81FC01408189819A819987888748
S1130370888599859C012770332781E090E002C02D
S1130380880F991F2A95E2F7942F982381E09923E7
S113039009F480E02B960FB6F894DEBF0FBECDBFF4
S11303A0DF91CF910895CF93DF93CDB7DEB784E289
S11303B090E02CE2FC0120838CE490E021E5FC0138
S11303C02083DF91CF910895CF93DF931F92CDB710
S11303D0DEB789838EE490E02981FC01208300004C
S11303E08DE490E0FC0180818823D4F70F90DF91A5
S11303F0CF910895CF93DF93CDB7DEB7CF52D046D8
S11304000FB6F894DEBF0FBECDBFCDDF61E070E064
S113041089E090E098DE61E070E088E090E093DEAF
S113042061E070E08FE190E08EDE61E070E08EE1EB
S113043090E089DE61E070E08DE190E084DE60E0D0
S113044088E090E0FBDE61E08EE190E0F7DE60E0C2
S11304508FE190E0F3DE80E090E0A0EAB0E48C8BE2
S11304609D8BAE8BBF8B20E030E04AE753E46C8970
S11304707D898E899F8926D2DC01CB01888F998F53
S1130480AA8FBB8F20E030E040E85FE3688D798D70
S11304908A8D9B8D96D188232CF481E090E09D8FEA
S11304A08C8F3BC020E03FEF4FE757E4688D798D98
S11304B08A8D9B8D03D218163CF520E030E040E293
S11304C051E46C897D898E899F89FCD1DC01CB0143
S11304D0BC01CD017AD1DC01CB019D8F8C8F0FC083
S11304E089E190E09F8F8E8F8E8D9F8D0197F1F71C
S11304F09F8F8E8F8C8D9D8D01979D8F8C8F8C8D72
S11305009D8D892B69F713C0688D798D8A8D9B8D9C
S11305105CD1DC01CB019D8F8C8F8C8D9D8D99A33B
S113052088A388A199A10197F1F799A388A361E011
S11305308FE190E083DE80E090E0A0EAB0E48AA35B
S11305409BA3ACA3BDA320E030E04AE753E46AA137
S11305507BA18CA19DA1B6D1DC01CB018EA39FA36D
S1130560A8A7B9A720E030E040E85FE36EA17FA12F
S113057088A599A526D188232CF481E090E09BA737
S11305808AA73BC020E03FEF4FE757E46EA17FA16D
S113059088A599A593D118163CF520E030E040E2F7
S11305A051E46AA17BA18CA19DA18CD1DC01CB017A
S11305B0BC01CD010AD1DC01CB019BA78AA70FC0E6
S11305C089E190E09DA78CA78CA59DA50197F1F7E3
S11305D09DA78CA78AA59BA501979BA78AA78AA5F7
S11305E09BA5892B69F713C06EA17FA188A599A546
S11305F0ECD0DC01CB019BA78AA78AA59BA59FA76A
S11306008EA78EA59FA50197F1F79FA78EA760E0FF
S11306108EE190E013DE60E088E090E00FDE84E09D
S1130620898B8989D1DE61E088E090E007DE1A8257
S113063019820AC08EE490E0FC0180818A8B898152
S11306409A8101969A83898389819A81039794F385
S11306508AE3898B8989B8DE61E088E090E0EEDD89
S113066083E0898B8989B0DE60E088E090E0E6DD94
S11306708DE2898B8989A8DE61E088E090E0DEDD87
S11306801C821B8209C08B81898B89899DDE8B81A9
S11306909C8101969C838B838B819C8140979CF3E6
S11306A081E190E09E838D8308C0198A89898CDE5C
S11306B08D819E8101969E838D838D819E818197FC
S11306C0A4F318861F8209C08F81898B89897CDEF7
S11306D08F819885019698878F838F81988540971D
S11306E09CF381E390E09A87898708C0198A8989F5
S11306F06BDE89859A8501969A87898789859A858B
S1130700813691059CF31C861B8609C08B85898BD9
S113071089895ADE8B859C8501969C878B878B857E
S11307209C8540979CF381E790E09E878D8708C065
S1130730198A898949DE8D859E8501969E878D87D4
S11307408D859E85813891059CF360E088E090E07A
S113075075DD8CE2898B898937DE61E088E090E081
S11307606DDD188A1F8610C080EF898B89892CDE85
S11307708FE0898B898928DE198A898925DE8F850E
S113078098890196988B8F878F85988981309042BC
S11307905CF360E088E090E051DD83E1898B898936
S11307A013DE61E08EE190E049DD8FE090E0B0DDA2
S11307B08B8B8B89882321F460E089E090E05DDCF9
S11307C0F4CF2FD008F481E0089557D088F09F57D4
S11307D090F0B92F9927B751A0F0D1F0660F771F89
S11307E0881F991F1AF0BA95C9F712C0B13081F069
S11307F05ED0B1E008955BC0672F782F8827B85F7B
S113080039F0B93FCCF3869577956795B395D9F7C9
S11308103EF490958095709561957F4F8F4F9F4FD3
S11308200895990F0008550FAA0BE0E8FEEF16167D
S11308301706E807F907C0F012161306E407F507D0
S113084098F0621B730B840B950B39F40A2661F044
S1130850232B242B252B21F408950A2609F4A140E7
S1130860A6958FEF811D811D089557FD9058440F63
S1130870551F59F05F3F71F04795880F97FB991FFB
S113088061F09F3F79F087950895121613061406B8
S1130890551FF2CF4695F1DF08C016161706180645
S11308A0991FF1CF86957105610508940895E89420
S11308B0BB2766277727CB0197F90895B2DF08F4A1
S11308C08FEF08950BD078C069D028F06ED018F05F
S11308D0952309F05AC05FC01124EACFC6DFA0F304
S11308E0959FD1F3950F50E0551F629FF001729FC1
S11308F0BB27F00DB11D639FAA27F00DB11DAA1FE0
S1130900649F6627B00DA11D661F829F2227B00D2C
S1130910A11D621F739FB00DA11D621F839FA00DB7
S1130920611D221F749F3327A00D611D231F849F07
S1130930600D211D822F762F6A2F11249F5750405E
S11309408AF0E1F088234AF0EE0FFF1FBB1F661FF9
S1130950771F881F91505040A9F79E3F510570F0B2
S113096014C0A6CF5F3FECF3983EDCF386957795F1
S11309706795B795F795E7959F5FC1F7FE2B880FAD
S1130980911D9695879597F9089597F99F6780E843
S113099070E060E008959FEF80EC089500240A94CD
S11309A01616170618060906089500240A94121646
S11309B01306140605060895092E0394000C11F479
S11309C0882352F0BB0F40F4BF2B11F460FF04C026
S11109D06F5F7F4F8F4F9F4F0895F894FFCFB6
S9030000FC
