:1000000033C0000039C0000037C0000035C0000018
:1000100033C0000031C000002FC000002DC0000020
:100020002BC0000029C0000027C0000025C0000030
:1000300023C0000021C000001FC000001DC0000040
:100040001BC0000019C0000017C0000015C0000050
:1000500013C0000011C000000FC000000DC0000060
:100060000BC0000009C0000011241FBECFEFD8E074
:10007000DEBFCDBF1BD327C7C3CFCF93DF93CDB791
:10008000DEB76A970FB6F894DEBF0FBECDBF8DE026
:10009000898383E090E09B838A838981882F90E025
:1000A0009D838C838C819D819C012770332781E007
:1000B00090E002C0880F991F2A95E2F7482F8981A6
:1000C000882F90E09F838E838E819F819695879560
:1000D000969587959695879588878885282F30E00F
:1000E000C901880F991F820F931F80969A8789876D
:1000F0004B878A819B819D878C878C859D858170AC
:100100009927892B89F18C859D8582709927892B68
:1001100071F089859A85029629853A852E5F3F4F31
:10012000F90130812B85232BFC0120830FC08985A9
:100130009A85029629853A852E5F3F4FF9012081E5
:10014000322F2B8520952323FC01208389859A85D6
:10015000019629853A852F5F3F4FF90130812B8524
:10016000232BFC01208332C089859A85019629853D
:100170003A852F5F3F4FF9012081322F2B85209543
:100180002323FC0120838C859D8584709927892BEE
:1001900071F089859A85029629853A852E5F3F4FB1
:1001A000F90130812B85232BFC0120830FC0898529
:1001B0009A85029629853A852E5F3F4FF901208165
:1001C000322F2B8520952323FC0120838FE08E87FF
:1001D00084E090E0988B8F878E85882F90E09A8BB3
:1001E000898B89899A899C012770332781E090E067
:1001F00002C0880F991F2A95E2F7482F8E85882F15
:1002000090E09C8B8B8B8B899C8996958795969596
:100210008795969587958D8B8D89282F30E0C9011C
:10022000880F991F820F931F80969F8B8E8B488F0C
:100230008F8598899A8F898F898D9A8D817099275A
:10024000892B89F1898D9A8D82709927892B71F07C
:100250008E899F8902962E893F892E5F3F4FF90133
:100260003081288D232BFC0120830FC08E899F892C
:1002700002962E893F892E5F3F4FF9012081322F50
:10028000288D20952323FC0120838E899F89019648
:100290002E893F892F5F3F4FF9013081288D232B15
:1002A000FC01208332C08E899F8901962E893F8967
:1002B0002F5F3F4FF9012081322F288D2095232376
:1002C000FC012083898D9A8D84709927892B71F088
:1002D0008E899F8902962E893F892E5F3F4FF901B3
:1002E0003081288D232BFC0120830FC08E899F89AC
:1002F00002962E893F892E5F3F4FF9012081322FD0
:10030000288D20952323FC0120836A960FB6F8944C
:10031000DEBF0FBECDBFDF91CF910895CF93DF93A6
:10032000CDB7DEB7DF91CF910895CF93DF93CDB7EF
:10033000DEB72F970FB6F894DEBF0FBECDBF9E87F6
:100340008D876F878D859E859A8389838F858B8323
:1003500089819A819D838C838C819D8196958795D7
:1003600096958795969587958E838E81282F30E078
:10037000C901880F991F820F931F809698878F83DA
:1003800089819A819A87898789859A859C012770B6
:10039000332781E090E002C0880F991F2A95E2F789
:1003A000882F90E09C878B878B81882361F48F81D5
:1003B0009885FC0192818B85292F282B8F81988528
:1003C000FC0122830FC08B81813061F48F8198857D
:1003D000FC0192818B858095292F28238F81988518
:1003E000FC0122832F960FB6F894DEBF0FBECDBF5F
:1003F000DF91CF910895CF93DF93CDB7DEB76197AB
:100400000FB6F894DEBF0FBECDBF9F878E87798B66
:10041000688B8E859F859A838983888999899C8337
:100420008B8389819A819E838D838D819E81969510
:10043000879596958795969587958F838F81282F99
:1004400030E0C901880F991F820F931F809699870A
:1004500088878B819C810197D9F489819A819B87B8
:100460008A878A859B859C012770332781E090E0ED
:1004700002C0880F991F2A95E2F7282F8885998551
:10048000FC018181282B88859985FC01218325C069
:100490008B819C81892B09F589819A819D878C8725
:1004A0008C859D859C012770332781E090E002C0F8
:1004B000880F991F2A95E2F7882F90E09C012095DC
:1004C000309588859985FC018181982F822F892319
:1004D000282F88859985FC01218361960FB6F894B1
:1004E000DEBF0FBECDBFDF91CF910895CF93DF93D5
:1004F000CDB7DEB72D970FB6F894DEBF0FBECDBFD8
:100500009C878B876D878B859C859A8389838D8556
:100510008B8389819A8196958795969587959695EF
:1005200087958C838C81282F30E0C901880F991F13
:10053000820F931F80969E838D838B818823D9F0B1
:100540008D819E81FC01428189819A8198878F8368
:100550008F8198859C012770332781E090E002C04D
:10056000880F991F2A95E2F7242F282B8D819E81D1
:10057000FC0122831CC08D819E81FC018281482F59
:1005800089819A819A87898789859A859C012770B4
:10059000332781E090E002C0880F991F2A95E2F787
:1005A00080958423282F8D819E81FC0122832D96A6
:1005B0000FB6F894DEBF0FBECDBFDF91CF91089587
:1005C000CF93DF93CDB7DEB72B970FB6F894DEBF8E
:1005D0000FBECDBF9B878A878A859B859A83898337
:1005E00089819A819C838B838B819C819695879549
:1005F00096958795969587958D838D81282F30E0E8
:10060000C901880F991F820F931F80969F838E8345
:100610008E819F81FC01408189819A819987888799
:10062000888599859C012770332781E090E002C07E
:10063000880F991F2A95E2F7942F982381E0992338
:1006400009F480E02B960FB6F894DEBF0FBECDBF45
:10065000DF91CF910895CF93DF93CDB7DEB784E2DA
:1006600090E028E2FC01208360E08AE090E05DDE1B
:100670008CE490E021E5FC012083DF91CF91089587
:10068000CF93DF931F92CDB7DEB789838EE490E0DE
:100690002981FC01208300008DE490E0FC01808131
:1006A0008823D4F70F90DF91CF9108950F931F9374
:1006B000CF93DF93CDB7DEB7C854D0460FB6F894CA
:1006C000DEBF0FBECDBFD9DC29DEC5DF84E690E0FA
:1006D000FC01108261E070E089E090E08CDE61E076
:1006E00070E088E090E087DE61E070E08FE190E00C
:1006F00082DE61E070E08EE190E07DDE61E070E03E
:100700008DE190E078DE60E088E090E0EFDE60E090
:100710008EE190E0EBDE61E08DE190E0E7DE61E00C
:100720008FE190E0E3DE80E090E0AAEFB3E4898B14
:100730009A8BAB8BBC8B20E030E04AE753E46989AD
:100740007A898B899C8934D3DC01CB018D8B9E8B7C
:10075000AF8BB88F20E030E040E85FE36D897E89A1
:100760008F89988DA4D288232CF481E090E09A8F11
:10077000898F3BC020E03FEF4FE757E46D897E89CA
:100780008F89988D11D318163CF520E030E040E2B7
:1007900051E469897A898B899C890AD3DC01CB0170
:1007A000BC01CD0188D2DC01CB019A8F898F0FC0AB
:1007B00089E190E09C8F8B8F8B8D9C8D0197F1F759
:1007C0009C8F8B8F898D9A8D01979A8F898F898DB8
:1007D0009A8D892B69F713C06D897E898F89988DD1
:1007E0006AD2DC01CB019A8F898F898D9A8D9E8F79
:1007F0008D8F8D8D9E8D0197F1F79E8F8D8F60E08F
:100800008FE190E073DE80E090E0AAEFB3E48F8F99
:1008100098A3A9A3BAA320E030E04AE753E46F8D80
:1008200078A189A19AA1C4D2DC01CB018BA39CA39E
:10083000ADA3BEA320E030E040E85FE36BA17CA164
:100840008DA19EA134D288232CF481E090E098A75A
:100850008FA33BC020E03FEF4FE757E46BA17CA1A3
:100860008DA19EA1A1D218163CF520E030E040E217
:1008700051E46F8D78A189A19AA19AD2DC01CB01B4
:10088000BC01CD0118D2DC01CB0198A78FA30FC00A
:1008900089E190E09AA789A789A59AA50197F1F720
:1008A0009AA789A78FA198A5019798A78FA38FA131
:1008B00098A5892B69F713C06BA17CA18DA19EA17E
:1008C000FAD1DC01CB0198A78FA38FA198A59CA793
:1008D0008BA78BA59CA50197F1F79CA78BA761E03F
:1008E0008FE190E003DE80E090E0AAEFB3E48DA713
:1008F0009EA7AFA7B8AB20E030E04AE753E46DA570
:100900007EA58FA598A954D2DC01CB0189AB9AAB07
:10091000ABABBCAB20E030E040E85FE369A97AA96B
:100920008BA99CA9C4D188232CF481E090E09EABD4
:100930008DAB3BC020E03FEF4FE757E469A97AA9B0
:100940008BA99CA931D218163CF520E030E040E29A
:1009500051E46DA57EA58FA598A92AD2DC01CB0113
:10096000BC01CD01A8D1DC01CB019EAB8DAB0FC08A
:1009700089E190E098AF8FAB8FA998AD0197F1F71F
:1009800098AF8FAB8DA99EA901979EAB8DAB8DA91A
:100990009EA9892B69F713C069A97AA98BA99CA97B
:1009A0008AD1DC01CB019EAB8DAB8DA99EA99AAFFC
:1009B00089AF89AD9AAD0197F1F79AAF89AF61E040
:1009C0008EE190E093DD80E090E0AAEFB3E48BAF9E
:1009D0009CAFADAFBEAF8E01015C1F4F20E030E099
:1009E0004AE753E46BAD7CAD8DAD9EADE1D1DC014A
:1009F000CB01F80180839183A283B383CE01CF968C
:100A000020E030E040E85FE3FC0160817181828199
:100A100093814DD188234CF4CE018D5B9F4F21E013
:100A200030E0FC013183208363C0CE01CF9620E00B
:100A30003FEF4FE757E4FC01608171818281938130
:100A4000B3D118160CF044C020E030E040E251E48D
:100A50006BAD7CAD8DAD9EADABD1DC01CB018E011C
:100A60000D5B1F4FBC01CD0126D1DC01CB01F8018C
:100A70009183808324C0CE018B5B9F4F29E130E0BE
:100A8000FC0131832083CE018B5B9F4FFC01808171
:100A900091810197F1F79E012B5B3F4FF901918303
:100AA0008083CE018D5B9F4F9E012D5B3F4FF901EF
:100AB0002081318121503109FC0131832083CE0115
:100AC0008D5B9F4FFC0180819181892BA1F62AC00B
:100AD0008E010D5B1F4FCE01CF96FC0160817181AD
:100AE00082819381E8D0DC01CB01F801918380837E
:100AF000CE01895B9F4F9E012D5B3F4FF901208105
:100B00003181FC0131832083CE01895B9F4FFC0141
:100B1000808191810197F1F79E01295B3F4FF90197
:100B20009183808360E08EE190E0E0DC60E088E02B
:100B300090E0DCDC89E28F878F85A2DD8AE38F87F6
:100B40008F859EDD61E088E090E0D0DC83E08F87D8
:100B50008F8596DD60E088E090E0C8DC8DE28F87CD
:100B60008F858EDD61E088E090E0C0DC1A8219821A
:100B700009C089818F878F8583DD89819A8101965C
:100B80009A83898389819A8140979CF381E190E0DF
:100B90009C838B8308C01F868F8572DD8B819C812F
:100BA00001969C838B838B819C818197A4F31E8209
:100BB0001D8209C08D818F878F8562DD8D819E8129
:100BC00001969E838D838D819E8140979CF381E366
:100BD00090E098878F8308C01F868F8551DD8F81B5
:100BE0009885019698878F838F81988581369105A6
:100BF0009CF31A86198609C089858F878F8540DD09
:100C000089859A8501969A87898789859A854097EB
:100C10009CF381E790E09C878B8708C01F868F85B7
:100C20002FDD8B859C8501969C878B878B859C858A
:100C3000813891059CF360E088E090E057DC8CE21D
:100C40008F878F851DDD61E088E090E04FDC1E8698
:100C50001D8610C080EF8F878F8512DD8FE08F8714
:100C60008F850EDD1F868F850BDD8D859E85019618
:100C70009E878D878D859E85813090425CF360E0F4
:100C800088E090E033DC83E18F878F85F9DC61E0D9
:100C90008EE190E02BDC8FE090E092DC888B8889FD
:100CA000882321F460E089E090E03FDBF4CF2FD08F
:100CB00008F481E0089557D088F09F5790F0B92F3D
:100CC0009927B751A0F0D1F0660F771F881F991FA1
:100CD0001AF0BA95C9F712C0B13081F05ED0B1E018
:100CE00008955BC0672F782F8827B85F39F0B93F28
:100CF000CCF3869577956795B395D9F73EF49095A3
:100D00008095709561957F4F8F4F9F4F0895990FF4
:100D10000008550FAA0BE0E8FEEF16161706E807C5
:100D2000F907C0F012161306E407F50798F0621BE6
:100D3000730B840B950B39F40A2661F0232B242BBB
:100D4000252B21F408950A2609F4A140A6958FEFDA
:100D5000811D811D089557FD9058440F551F59F06E
:100D60005F3F71F04795880F97FB991F61F09F3F98
:100D700079F087950895121613061406551FF2CFC1
:100D80004695F1DF08C0161617061806991FF1CF11
:100D900086957105610508940895E894BB27662738
:100DA0007727CB0197F90895B2DF08F48FEF089504
:100DB0000BD078C069D028F06ED018F0952309F0D8
:100DC0005AC05FC01124EACFC6DFA0F3959FD1F3CC
:100DD000950F50E0551F629FF001729FBB27F00DE9
:100DE000B11D639FAA27F00DB11DAA1F649F66273E
:100DF000B00DA11D661F829F2227B00DA11D621F8D
:100E0000739FB00DA11D621F839FA00D611D221F46
:100E1000749F3327A00D611D231F849F600D211D2A
:100E2000822F762F6A2F11249F5750408AF0E1F0CD
:100E300088234AF0EE0FFF1FBB1F661F771F881F16
:100E400091505040A9F79E3F510570F014C0A6CFB5
:100E50005F3FECF3983EDCF3869577956795B79501
:100E6000F795E7959F5FC1F7FE2B880F911D96952B
:100E7000879597F9089597F99F6780E870E060E09B
:100E800008959FEF80EC089500240A941616170623
:100E900018060906089500240A941216130614066B
:100EA00005060895092E0394000C11F4882352F0CE
:100EB000BB0F40F4BF2B11F460FF04C06F5F7F4F86
:0A0EC0008F4F9F4F0895F894FFCF65
:00000001FF
